:1000000002007BC00078B10000D8FCD00022C00004
:10001000C001792D78A6D8FED9FADAF6D001D00041
:1000200022D2B3120003C2B322D2B2020033C2B250
:10003000020033A2E792B7A2E692B6A2E592B5A279
:10004000E492B4120021A2E392B7A2E292B6A2E136
:1000500092B5A2E092B412002122C2B3743312000E
:100060002E743212002E742012002E740C12002EE8
:10007000740112002E7A0212000E2275817F120086
:100080005A9000EDA37C00C083C082791074801266
:10009000002E740312002E7A0212000EE493A36065
:1000A0000B120029D9F6D083D08280087C01D0833E
:1000B000D082800030A00530A31280F8BC0001A3DC
:1000C000741812002E7A9612000E80BB7C00E41485
:1000D00093B4010C741C12002E7A9612000E80A7A5
:1000E000E58214500474FF1583F58280E7014265B0
:1000F0006E6E6574742047616C616D616761203854
:1001000034333732353135003834333732353135E1
:1001100000412054414C45204F462054574F204326
:1001200049544945532020412053544F5259204FA0
:100130004620544845204652454E43482052455695
:100140004F4C5554494F4E202042792043686172EC
:100150006C6573204469636B656E7320434841503E
:1001600054455220492E2054686520506572696FAD
:100170006420497420776173207468652062657318
:1001800074206F662074696D65732C206974207704
:1001900061732074686520776F727374206F6620B6
:1001A00074696D65732C206974207761732074689D
:1001B0006520616765206F6620776973646F6D2CB9
:1001C00020697420776173207468652061676520F9
:1001D0006F6620666F6F6C6973686E6573732C2031
:1001E000697420776173207468652065706F636837
:1001F000206F662062656C6965662C2069742077C3
:100200006173207468652065706F6368206F662075
:10021000696E63726564756C6974792C20697420E9
:100220007761732074686520736561736F6E206FEA
:1002300066204C696768742C20697420776173208C
:1002400074686520736561736F6E206F662044610A
:10025000726B6E6573732C206974207761732074E0
:10026000686520737072696E67206F6620686F70B2
:10027000652C206974207761732074686520776924
:100280006E746572206F6620646573706169722C8C
:100290002077652068616420657665727974686985
:1002A0006E67206265666F72652075732C207765B6
:1002B00020686164206E6F7468696E67206265668D
:1002C0006F72652075732C207765207765726520C5
:1002D000616C6C20676F696E672064697265637416
:1002E00020746F2048656176656E2C2077652077D5
:1002F00065726520616C6C20676F696E6720646948
:100300007265637420746865206F74686572207705
:10031000617997696E2073686F72742C20746865B8
:1003200020706572696F642077617320736F206637
:100330006172206C696B65207468652070726573EA
:10034000656E7420706572696F642C2074686174C6
:1003500020736F6D65206F6620697473206E6F69FE
:10036000736965737420617574686F726974696507
:100370007320696E736973746564206F6E2069748D
:1003800073206265696E672072656365697665646E
:100390002C20666F7220676F6F64206F7220666F0B
:1003A00072206576696C2C20696E207468652073F4
:1003B000757065726C6174697665206465677265D5
:1003C00065206F6620636F6D70617269736F6E2058
:1003D0006F6E6C792E546865726520776572652042
:1003E00061206B696E6720776974682061206C6199
:1003F000726765206A617720616E64206120717583
:1004000065656E2077697468206120706C61696E23
:1004100020666163652C206F6E20746865207468A7
:10042000726F6E65206F6620456E676C616E643B0F
:1004300020746865726520776572652061206B693C
:100440006E6720776974682061206C61726765202F
:100450006A617720616E64206120717565656E2028
:1004600077697468206120666169722066616365DE
:100470002C206F6E20746865207468726F6E652022
:100480006F66204672616E63652E20496E20626F32
:10049000746820636F756E74726965732069742067
:1004A00077617320636C6561726572207468616E38
:1004B000206372797374616C20746F207468652096
:1004C0006C6F726473206F6620746865205374616A
:1004D000746520707265736572766573206F66202F
:1004E0006C6F6176657320616E6420666973686500
:1004F000732C2074686174207468696E6773206956
:100500006E2067656E6572616C2077657265207319
:100510006574746C656420666F7220657665722EF2
:100520004974207761732074686520796561722051
:100530006F66204F7572204C6F7264206F6E65205D
:1005400074686F7573616E6420736576656E20687C
:10055000756E6472656420616E6420736576656E85
:1005600074792D666976652E205370697269747589
:10057000616C20726576656C6174696F6E7320774B
:1005800065726520636F6E636564656420746F20B7
:10059000456E676C616E64206174207468617420BC
:1005A0006661766F7572656420706572696F642C20
:1005B00020617320617420746869732E204D7273FA
:1005C0002E20536F757468636F74742068616420A3
:1005D000726563656E746C792061747461696E65AF
:1005E000642068657220666976652D616E642D747D
:1005F00077656E746965746820626C657373656491
:100600002062697274686461792C206F6620776853
:100610006F6D20612070726F7068657469632070FF
:1006200072697661746520696E20746865204C6912
:10063000666520477561726473206861642068652F
:1006400072616C64656420746865207375626C699E
:100650006D6520617070656172616E63652062799D
:1006600020616E6E6F756E63696E67207468617469
:1006700020617272616E67656D656E747320776557
:100680007265206D61646520666F722074686520F4
:100690007377616C6C6F77696E67207570206F6619
:1006A000204C6F6E646F6E20616E642057657374AA
:1006B0006D696E737465722E204576656E20746860
:1006C0006520436F636B2D6C616E652067686F7387
:1006D0007420686164206265656E206C61696420C5
:1006E0006F6E6C79206120726F756E6420646F7A12
:1006F000656E206F662079656172732C2061667467
:1007000065722072617070696E67206F7574206900
:100710007473206D657373616765732C206173203A
:100720007468652073706972697473206F662074D1
:1007300068697320766572792079656172206C61D1
:1007400073742070617374202873757065726E61A4
:10075000747572616C6C7920646566696369656E35
:100760007420696E206F726967696E616C69747953
:100770002920726170706564206F757420746865DB
:100780006972732E204D657265206D6573736167A4
:10079000657320696E207468652065617274686C89
:1007A00079206F72646572206F66206576656E745D
:1007B0007320686164206C6174656C7920636F6D6F
:1007C0006520746F2074686520456E676C69736876
:1007D0002043726F776E20616E642050656F706C7D
:1007E000652C2066726F6D206120636F6E67726585
:1007F0007373206F66204272697469736820737521
:10080000626A6563747320696E20416D6572696305
:10081000613A2077686963682C20737472616E672F
:100820006520746F2072656C6174652C2068617638
:10083000652070726F766564206D6F726520696DDA
:10084000706F7274616E7420746F207468652068B4
:10085000756D616E2072616365207468616E2061E0
:100860006E7920636F6D6D756E69636174696F6E0B
:100870007320796574207265636569766564207498
:1008800068726F75676820616E79206F6620746882
:100890006520636869636B656E73206F662074689A
:1008A0006520436F636B2D6C616E652062726F6FA4
:1008B000642E4672616E63652C206C6573732066CE
:1008C00061766F75726564206F6E2074686520773D
:1008D000686F6C6520617320746F206D617474653E
:1008E00072732073706972697475616C20746861C9
:1008F0006E2068657220736973746572206F66205C
:1009000074686520736869656C6420616E64207426
:10091000726964656E742C20726F6C6C65642077EC
:1009200069746820657863656564696E6720736DB6
:100930006F6F74686E65737320646F776E2068697B
:100940006C6C2C206D616B696E67207061706572D4
:10095000206D6F6E657920616E64207370656E64C2
:10096000696E672069742E20556E64657220746804
:10097000652067756964616E6365206F66206865D0
:10098000722043687269737469616E207061737458
:100990006F72732C2073686520656E746572746164
:1009A000696E65642068657273656C662C2062658B
:1009B00073696465732C2077697468207375636844
:1009C0002068756D616E6520616368696576656D27
:1009D000656E74732061732073656E74656E6369F0
:1009E0006E67206120796F75746820746F2068616C
:1009F0007665206869732068616E6473206375741E
:100A0000206F66662C2068697320746F6E67756549
:100A100020746F726E206F7574207769746820700F
:100A2000696E636572732C20616E6420686973203F
:100A3000626F6479206275726E656420616C69769C
:100A4000652C206265636175736520686520686147
:100A500064206E6F74206B6E65656C656420646FD6
:100A6000776E20696E20746865207261696E2074EB
:100A70006F20646F20686F6E6F757220746F2061D5
:100A80002064697274792070726F63657373696F23
:100A90006E206F66206D6F6E6B7320776869636878
:100AA000207061737365642077697468696E20686B
:100AB000697320766965772C2061742061206469F0
:100AC0007374616E6365206F6620736F6D65206659
:100AD00069667479206F72207369787479207961FE
:100AE0007264732E204974206973206C696B656C85
:100AF0007920656E6F75676820746861742C207248
:100B00006F6F74656420696E2074686520776F6FFD
:100B10006473206F66204672616E636520616E6447
:100B2000204E6F727761792C20746865726520772A
:100B30006572652067726F77696E6720747265658C
:100B4000732C207768656E207468617420737566F5
:100B50006665726572207761732070757420746F9A
:100B60002064656174682C20616C72656164792011
:100B70006D61726B65642062792074686520576FBF
:100B80006F646D616E2C20466174652C20746F203B
:100B9000636F6D6520646F776E20616E642062659F
:100BA000207361776E20696E746F20626F6172646A
:100BB000732C20746F206D616B65206120636572FA
:100BC0007461696E206D6F7661626C65206672611A
:100BD0006D65776F726B207769746820612073612F
:100BE000636B20616E642061206B6E6966652069AD
:100BF0006E2069742C207465727269626C6520695C
:100C00006E20686973746F72792E2049742069733D
:100C1000206C696B656C7920656E6F7567682074F0
:100C200068617420696E2074686520726F756768EA
:100C3000206F7574686F75736573206F6620736FAE
:100C40006D652074696C6C657273206F66207468C2
:100C500065206865617679206C616E6473206164DB
:100C60006A6163656E7420746F2050617269732CC1
:100C70002074686572652077657265207368656C9D
:100C800074657265642066726F6D20746865207784
:100C90006561746865722074686174207665727924
:100CA000206461792C2072756465206361727473AD
:100CB0002C20626573706174746572656420776955
:100CC000746820727573746963206D6972652C2075
:100CD000736E75666665642061626F7574206279F3
:100CE00020706967732C20616E6420726F6F73745B
:100CF000656420696E20627920706F756C747279FA
:100D00002C20776869636820746865204661726D7D
:100D100065722C2044656174682C206861642061D0
:100D20006C7265616479207365742061706172749E
:100D300020746F206265206869732074756D62721B
:100D4000696C73206F6620746865205265766F6CDD
:100D50007574696F6E2E20427574207468617420FA
:100D6000576F6F646D616E20616E6420746861748A
:100D7000204661726D65722C2074686F75676820FB
:100D80007468657920776F726B20756E6365617327
:100D9000696E676C792C20776F726B2073696C6554
:100DA0006E746C792C20616E64206E6F206F6E659E
:100DB000206865617264207468656D2061732074B9
:100DC0006865792077656E742061626F757420772D
:100DD000697468206D7566666C65642074726561FF
:100DE000643A20746865207261746865722C2066AC
:100DF0006F7261736D75636820617320746F206515
:100E00006E7465727461696E20616E79207375739A
:100E1000706963696F6E20746861742074686579A5
:100E20002077657265206177616B652C207761732F
:100E300020746F20626520617468656973746963EA
:100E4000616C20616E642074726169746F726F7579
:100E5000732E202C496E20456E676C616E642C20C9
:100E6000746865726520776173207363617263656E
:100E70006C7920616E20616D6F756E74206F6620D5
:100E80006F7264657220616E642070726F74656346
:100E900074696F6E20746F206A7573746966792047
:100EA0006D756368206E6174696F6E616C20626F2E
:100EB000617374696E672E20446172696E67206287
:100EC0007572676C61726965732062792061726DF9
:100ED0006564206D656E2C20616E642068696768AA
:100EE00077617920726F626265726965732C207414
:100EF0006F6F6B20706C61636520696E207468652C
:100F0000206361706974616C20697473656C66201C
:100F10006576657279206E696768743B2066616DDD
:100F2000696C6965732077657265207075626C699C
:100F3000636C792063617574696F6E6564206E6F90
:100F40007420746F20676F206F7574206F66207433
:100F50006F776E20776974686F75742072656D6F36
:100F600076696E67207468656972206675726E694D
:100F70007475726520746F207570686F6C7374651A
:100F800072657273922077617265686F75736573AD
:100F900020666F722073656375726974793B207483
:100FA000686520686967687761796D616E20696E30
:100FB00020746865206461726B2077617320612002
:100FC00043697479207472616465736D616E206920
:100FD0006E20746865206C696768742C20616E648B
:100FE0002C206265696E67207265636F676E697336
:100FF000656420616E64206368616C6C656E676512
:1010000064206279206869732066656C6C6F772D47
:101010007472616465736D616E2077686F6D2068AE
:10102000652073746F7070656420696E20686973E1
:1010300020636861726163746572206F66209374C7
:101040006865204361707461696E2C942067616CDF
:101050006C616E746C792073686F742068696D20A0
:101060007468726F7567682074686520686561646C
:1010700020616E6420726F646520617761793B2026
:10108000746865206D61696C207761732077617980
:101090006C61696420627920736576656E20726F79
:1010A00062626572732C20616E64207468652067CB
:1010B000756172642073686F74207468726565204E
:1010C000646561642C20616E64207468656E2067BD
:1010D0006F742073686F7420646561642068696D43
:1010E00073656C6620627920746865206F7468652A
:1010F0007220666F75722C2093696E20636F6E7319
:10110000657175656E6365206F662074686520661D
:1011100061696C757265206F662068697320616D06
:101120006D756E6974696F6E3A942061667465724C
:1011300020776869636820746865206D61696C2038
:1011400077617320726F6262656420696E207065DA
:101150006163653B2074686174206D61676E6966C8
:101160006963656E7420706F74656E746174652C4C
:1011700020746865204C6F7264204D61796F722015
:101180006F66204C6F6E646F6E2C20776173206DDC
:1011900061646520746F207374616E6420616E6495
:1011A0002064656C69766572206F6E205475726E6E
:1011B00068616D20477265656E2C206279206F6EC4
:1011C0006520686967687761796D616E2C20776842
:1011D0006F20646573706F696C6564207468652046
:1011E000696C6C75737472696F7573206372656175
:1011F0007475726520696E207369676874206F6604
:1012000020616C6C2068697320726574696E756505
:101210003B20707269736F6E65727320696E204C2B
:101220006F6E646F6E2067616F6C7320666F756799
:10123000687420626174746C6573207769746820C7
:101240007468656972207475726E6B6579732C2091
:10125000616E6420746865206D616A6573747920BD
:101260006F6620746865206C6177206669726564BA
:1012700020626C756E646572627573736573206944
:101280006E20616D6F6E67207468656D2C206C6FC9
:1012900061646564207769746820726F756E647329
:1012A000206F662073686F7420616E642062616CC9
:1012B0006C3B207468696576657320736E69707025
:1012C0006564206F6666206469616D6F6E6420637B
:1012D000726F737365732066726F6D20746865201A
:1012E0006E65636B73206F66206E6F626C65206C39
:1012F0006F72647320617420436F7572742064721E
:101300006177696E672D726F6F6D733B206D7573BA
:101310006B6574656572732077656E7420696E7491
:101320006F2053742E2047696C657392732C207460
:101330006F2073656172636820666F7220636F6EE1
:1013400074726162616E6420676F6F64732C2061D8
:101350006E6420746865206D6F62206669726564D2
:10136000206F6E20746865206D75736B657465659C
:1013700072732C20616E6420746865206D75736BC8
:10138000657465657273206669726564206F6E208E
:10139000746865206D6F622C20616E64206E6F62D0
:1013A0006F64792074686F7567687420616E792046
:1013B0006F66207468657365206F6363757272650C
:1013C0006E636573206D756368206F7574206F663A
:1013D0002074686520636F6D6D6F6E207761792E64
:1013E00020496E20746865206D69647374206F668F
:1013F000207468656D2C207468652068616E676D67
:10140000616E2C2065766572206275737920616E3D
:1014100064206576657220776F72736520746861E9
:101420006E207573656C6573732C2077617320690A
:101430006E20636F6E7374616E742072657175696E
:10144000736974696F6E3B206E6F772C20737472B2
:10145000696E67696E67207570206C6F6E672072A9
:101460006F7773206F66206D697363656C6C616E56
:10147000656F7573206372696D696E616C733B2073
:101480006E6F772C2068616E67696E6720612068D7
:101490006F757365627265616B6572206F6E205344
:1014A000617475726461792077686F206861642067
:1014B0006265656E2074616B656E206F6E20547579
:1014C00065736461793B206E6F772C206275726E54
:1014D000696E672070656F706C6520696E20746836
:1014E000652068616E64206174204E657767617461
:1014F000652062792074686520646F7A656E2C209F
:10150000616E64206E6F77206275726E696E6720FF
:1015100070616D70686C65747320617420746865A7
:1015200020646F6F72206F6620576573746D696EEB
:10153000737465722048616C6C3B20746F2D64611C
:10154000792C2074616B696E6720746865206C6902
:101550006665206F6620616E206174726F63696FCB
:101560007573206D757264657265722C20616E648E
:1015700020746F2D6D6F72726F77206F66206120FF
:1015800077726574636865642070696C66657265FE
:10159000722077686F2068616420726F6262656490
:1015A0002061206661726D6572927320626F79208E
:1015B0006F662073697870656E63652E20416C6C70
:1015C000207468657365207468696E67732C206188
:1015D0006E6420612074686F7573616E64206C693D
:1015E0006B65207468656D2C2063616D6520746F78
:1015F000207061737320696E20616E6420636C6F6C
:1016000073652075706F6E20746865206465617203
:10161000206F6C642079656172206F6E652074683C
:101620006F7573616E6420736576656E2068756E84
:101630006472656420616E6420736576656E74798A
:101640002D666976652E20456E7669726F6E6564CB
:10165000206279207468656D2C207768696C65203C
:1016600074686520576F6F646D616E20616E6420D1
:10167000746865204661726D657220776F726B6564
:101680006420756E6865656465642C2074686F738A
:10169000652074776F206F6620746865206C6172B6
:1016A0006765206A6177732C20616E642074686FAF
:1016B0007365206F746865722074776F206F662081
:1016C00074686520706C61696E20616E6420746856
:1016D0006520666169722066616365732C2074728F
:1016E0006F642077697468207374697220656E6F07
:1016F0007567682C20616E6420636172726965642D
:1017000020746865697220646976696E6520726903
:1017100067687473207769746820612068696768F6
:101720002068616E642E205468757320646964209B
:101730007468652079656172206F6E652074686FCA
:101740007573616E6420736576656E2068756E646E
:1017500072656420616E6420736576656E74792DA0
:101760006669766520636F6E64756374207468655E
:1017700069722047726561746E65737365732C209E
:10178000616E64206D797269616473206F66207385
:101790006D616C6C206372656174757265739774AA
:1017A000686520637265617475726573206F662069
:1017B00074686973206368726F6E69636C65206119
:1017C0006D6F6E6720746865207265737497616CC5
:1017D0006F6E672074686520726F6164732074682F
:1017E0006174206C6179206265666F72652074682F
:0417F000656D2E00F5
:00000001FF
