:100000000200BBC00078010000D8FCD00022C00074
:10001000C001792D78A6D8FED9FADAF6D001D00041
:1000200022D2B3120003C2B322D2B2020033C2B250
:10003000020033A2E792B7A2E692B6A2E592B5A279
:10004000E492B4120021A2E392B7A2E292B6A2E136
:1000500092B5A2E092B412002122C2B3743312000E
:100060002E743312002E743212002E742012002EC1
:10007000740C12002E740112002E7A0212000E224D
:10008000C001794FE493600B120029A3D9F6120046
:100090009680F1D0012230A00530A30B80F8091220
:1000A00000AFB8002E80DD1200B5B8002680E774DE
:1000B0001812002E22741C12002E2275817FC0009F
:1000C00075000012005A748012002E9000F6120083
:1000D00080780130A0C830A3CE80F82042656E6ED3
:1000E0006574742047616C616D61676100383433F9
:1000F000373235313500412054414C45204F4620A0
:1001000054574F20434954494553202041205354CC
:100110004F5259204F4620544845204652454E43A1
:1001200048205245564F4C5554494F4E2020427955
:1001300020436861726C6573204469636B656E73FC
:10014000204348415054455220492E205468652090
:10015000506572696F6420497420776173207468F8
:10016000652062657374206F662074696D65732CF9
:10017000206974207761732074686520776F7273CB
:1001800074206F662074696D65732C206974207704
:1001900061732074686520616765206F66207769E8
:1001A00073646F6D2C2069742077617320746865A7
:1001B00020616765206F6620666F6F6C6973686E7B
:1001C0006573732C206974207761732074686520CF
:1001D00065706F6368206F662062656C6965662C68
:1001E00020697420776173207468652065706F637F
:1001F00068206F6620696E63726564756C697479D6
:100200002C206974207761732074686520736561A0
:10021000736F6E206F66204C696768742C20697458
:10022000207761732074686520736561736F6E2039
:100230006F66204461726B6E6573732C2069742045
:100240007761732074686520737072696E67206FC0
:100250006620686F70652C20697420776173207444
:1002600068652077696E746572206F6620646573B7
:10027000706169722C2077652068616420657665FD
:1002800072797468696E67206265666F7265207541
:10029000732C20776520686164206E6F7468696EC6
:1002A00067206265666F72652075732C2077652004
:1002B0007765726520616C6C20676F696E6720647A
:1002C000697265637420746F2048656176656E2C71
:1002D000207765207765726520616C6C20676F6997
:1002E0006E672064697265637420746865206F743A
:1002F0006865722077617997696E2073686F727490
:100300002C2074686520706572696F642077617352
:1003100020736F20666172206C696B65207468655C
:100320002070726573656E7420706572696F642CDD
:10033000207468617420736F6D65206F6620697426
:1003400073206E6F69736965737420617574686F6B
:1003500072697469657320696E736973746564206A
:100360006F6E20697473206265696E6720726563C1
:1003700065697665642C20666F7220676F6F6420F4
:100380006F7220666F72206576696C2C20696E2012
:100390007468652073757065726C61746976652028
:1003A000646567726565206F6620636F6D7061724A
:1003B00069736F6E206F6E6C792E5468657265205C
:1003C000776572652061206B696E67207769746854
:1003D0002061206C61726765206A617720616E64BC
:1003E000206120717565656E2077697468206120D1
:1003F000706C61696E20666163652C206F6E20747D
:100400006865207468726F6E65206F6620456E6740
:100410006C616E643B2074686572652077657265F7
:100420002061206B696E6720776974682061206C99
:1004300061726765206A617720616E642061207156
:100440007565656E207769746820612066616972E0
:1004500020666163652C206F6E2074686520746867
:10046000726F6E65206F66204672616E63652E2026
:10047000496E20626F746820636F756E747269656F
:10048000732069742077617320636C656172657293
:10049000207468616E206372797374616C20746F6C
:1004A00020746865206C6F726473206F66207468B6
:1004B000652053746174652070726573657276652A
:1004C00073206F66206C6F6176657320616E6420A7
:1004D0006669736865732C20746861742074686938
:1004E0006E677320696E2067656E6572616C207738
:1004F00065726520736574746C656420666F722024
:10050000657665722E497420776173207468652062
:1005100079656172206F66204F7572204C6F72642E
:10052000206F6E652074686F7573616E64207365EB
:1005300076656E2068756E6472656420616E6420F5
:10054000736576656E74792D666976652E205370B5
:100550006972697475616C20726576656C61746925
:100560006F6E73207765726520636F6E6365646577
:100570006420746F20456E676C616E642061742026
:1005800074686174206661766F7572656420706549
:1005900072696F642C2061732061742074686973C0
:1005A0002E204D72732E20536F757468636F7474B0
:1005B0002068616420726563656E746C7920617473
:1005C0007461696E65642068657220666976652D60
:1005D000616E642D7477656E746965746820626CF1
:1005E00065737365642062697274686461792C2034
:1005F0006F662077686F6D20612070726F7068651C
:10060000746963207072697661746520696E207404
:100610006865204C6966652047756172647320685F
:10062000616420686572616C64656420746865202B
:100630007375626C696D6520617070656172616E61
:10064000636520627920616E6E6F756E63696E6797
:10065000207468617420617272616E67656D656E89
:1006600074732077657265206D61646520666F72B2
:1006700020746865207377616C6C6F77696E672092
:100680007570206F66204C6F6E646F6E20616E64B3
:1006900020576573746D696E737465722E2045768C
:1006A000656E2074686520436F636B2D6C616E65A9
:1006B0002067686F737420686164206265656E20CE
:1006C0006C616964206F6E6C79206120726F756E49
:1006D0006420646F7A656E206F662079656172733D
:1006E0002C2061667465722072617070696E67207B
:1006F0006F757420697473206D65737361676573BA
:100700002C2061732074686520737069726974733A
:10071000206F662074686973207665727920796528
:100720006172206C6173742070617374202873751A
:100730007065726E61747572616C6C792064656647
:10074000696369656E7420696E206F726967696E8E
:10075000616C6974792920726170706564206F75AD
:1007600074207468656972732E204D657265206D02
:100770006573736167657320696E207468652065B1
:10078000617274686C79206F72646572206F662084
:100790006576656E747320686164206C6174656C45
:1007A0007920636F6D6520746F2074686520456ED5
:1007B000676C6973682043726F776E20616E642086
:1007C00050656F706C652C2066726F6D20612063C0
:1007D0006F6E6772657373206F6620427269746909
:1007E0007368207375626A6563747320696E204153
:1007F0006D65726963613A2077686963682C20735C
:100800007472616E676520746F2072656C617465C7
:100810002C20686176652070726F766564206D6F3C
:10082000726520696D706F7274616E7420746F20D0
:100830007468652068756D616E20726163652074EF
:1008400068616E20616E7920636F6D6D756E69638E
:100850006174696F6E732079657420726563656970
:10086000766564207468726F75676820616E7920A0
:100870006F662074686520636869636B656E7320BA
:100880006F662074686520436F636B2D6C616E65C5
:100890002062726F6F642E4672616E63652C206CED
:1008A000657373206661766F75726564206F6E2064
:1008B0007468652077686F6C6520617320746F20A1
:1008C0006D61747465727320737069726974756197
:1008D0006C207468616E206865722073697374653A
:1008E00072206F662074686520736869656C642087
:1008F000616E642074726964656E742C20726F6C12
:100900006C656420776974682065786365656469DF
:100910006E6720736D6F6F74686E65737320646F9C
:10092000776E2068696C6C2C206D616B696E672036
:100930007061706572206D6F6E657920616E6420E4
:100940007370656E64696E672069742E20556E64DD
:100950006572207468652067756964616E636520DF
:100960006F66206865722043687269737469616E8E
:1009700020706173746F72732C2073686520656ECC
:100980007465727461696E65642068657273656C04
:10099000662C20626573696465732C2077697468BE
:1009A00020737563682068756D616E65206163688A
:1009B000696576656D656E74732061732073656E0D
:1009C00074656E63696E67206120796F7574682045
:1009D000746F2068617665206869732068616E6451
:1009E0007320637574206F66662C206869732074A9
:1009F0006F6E67756520746F726E206F75742077E7
:100A00006974682070696E636572732C20616E640E
:100A10002068697320626F6479206275726E656404
:100A200020616C6976652C20626563617573652051
:100A3000686520686164206E6F74206B6E65656CFC
:100A4000656420646F776E20696E2074686520721B
:100A500061696E20746F20646F20686F6E6F7572AD
:100A600020746F20612064697274792070726F63E2
:100A7000657373696F6E206F66206D6F6E6B732088
:100A8000776869636820706173736564207769743F
:100A900068696E2068697320766965772C206174B7
:100AA00020612064697374616E6365206F662073D2
:100AB0006F6D65206669667479206F72207369783E
:100AC00074792079617264732E20497420697320CF
:100AD0006C696B656C7920656E6F756768207468EA
:100AE00061742C20726F6F74656420696E20746865
:100AF0006520776F6F6473206F66204672616E6346
:100B00006520616E64204E6F727761792C20746865
:100B100065726520776572652067726F77696E67A9
:100B20002074726565732C207768656E2074686127
:100B300074207375666665726572207761732070C4
:100B4000757420746F2064656174682C20616C7208
:100B500065616479206D61726B65642062792074CF
:100B6000686520576F6F646D616E2C2046617465F7
:100B70002C20746F20636F6D6520646F776E206129
:100B80006E64206265207361776E20696E746F20D9
:100B9000626F617264732C20746F206D616B6520CD
:100BA00061206365727461696E206D6F7661626C3D
:100BB00065206672616D65776F726B207769746806
:100BC0002061207361636B20616E642061206B6E15
:100BD00069666520696E2069742C2074657272697B
:100BE000626C6520696E20686973746F72792E205B
:100BF0004974206973206C696B656C7920656E6F30
:100C0000756768207468617420696E207468652057
:100C1000726F756768206F7574686F757365732080
:100C20006F6620736F6D652074696C6C65727320DC
:100C30006F6620746865206865617679206C616EE6
:100C400064732061646A6163656E7420746F205000
:100C5000617269732C2074686572652077657265AE
:100C6000207368656C74657265642066726F6D20B0
:100C70007468652077656174686572207468617452
:100C80002076657279206461792C20727564652004
:100C900063617274732C2062657370617474657221
:100CA0006564207769746820727573746963206D58
:100CB0006972652C20736E75666665642061626F6B
:100CC000757420627920706967732C20616E6420CE
:100CD000726F6F7374656420696E20627920706F23
:100CE000756C7472792C2077686963682074686504
:100CF000204661726D65722C2044656174682C20F9
:100D000068616420616C7265616479207365742028
:100D1000617061727420746F20626520686973204D
:100D200074756D6272696C73206F662074686520DB
:100D30005265766F6C7574696F6E2E2042757420E3
:100D40007468617420576F6F646D616E20616E64AA
:100D50002074686174204661726D65722C2074681D
:100D60006F756768207468657920776F726B20757E
:100D70006E63656173696E676C792C20776F726B37
:100D80002073696C656E746C792C20616E64206EC2
:100D90006F206F6E65206865617264207468656D90
:100DA00020617320746865792077656E74206162B4
:100DB0006F75742077697468206D7566666C6564FC
:100DC0002074726561643A20746865207261746889
:100DD00065722C20666F7261736D75636820617334
:100DE00020746F20656E7465727461696E20616E27
:100DF0007920737573706963696F6E2074686174AC
:100E000020746865792077657265206177616B650C
:100E10002C2077617320746F20626520617468658F
:100E20006973746963616C20616E642074726169B6
:100E3000746F726F75732E202C496E20456E676C2F
:100E4000616E642C2074686572652077617320730D
:100E500063617263656C7920616E20616D6F756E80
:100E600074206F66206F7264657220616E642070FA
:100E7000726F74656374696F6E20746F206A757326
:100E800074696679206D756368206E6174696F6E30
:100E9000616C20626F617374696E672E20446172A9
:100EA000696E6720627572676C6172696573206232
:100EB000792061726D6564206D656E2C20616E64B1
:100EC000206869676877617920726F62626572690C
:100ED00065732C20746F6F6B20706C616365206983
:100EE0006E20746865206361706974616C20697438
:100EF00073656C66206576657279206E69676874C3
:100F00003B2066616D696C69657320776572652049
:100F10007075626C69636C792063617574696F6E5A
:100F20006564206E6F7420746F20676F206F757416
:100F3000206F6620746F776E20776974686F7574A0
:100F40002072656D6F76696E6720746865697220BE
:100F50006675726E697475726520746F207570683D
:100F60006F6C7374657265727392207761726568D5
:100F70006F7573657320666F722073656375726930
:100F800074793B2074686520686967687761796D5A
:100F9000616E20696E20746865206461726B2077D1
:100FA0006173206120436974792074726164657390
:100FB0006D616E20696E20746865206C6967687465
:100FC0002C20616E642C206265696E6720726563F7
:100FD0006F676E6973656420616E64206368616C1D
:100FE0006C656E6765642062792068697320666548
:100FF0006C6C6F772D7472616465736D616E2077B0
:10100000686F6D2068652073746F70706564206907
:101010006E20686973206368617261637465722011
:101020006F662093746865204361707461696E2CEB
:10103000942067616C6C616E746C792073686F7456
:101040002068696D207468726F75676820746865C0
:10105000206865616420616E6420726F6465206140
:101060007761793B20746865206D61696C207761D8
:1010700073207761796C6169642062792073657689
:10108000656E20726F62626572732C20616E6420DF
:101090007468652067756172642073686F7420746A
:1010A0006872656520646561642C20616E642074DB
:1010B00068656E20676F742073686F742064656163
:1010C000642068696D73656C662062792074686558
:1010D000206F7468657220666F75722C2093696E3C
:1010E00020636F6E73657175656E6365206F662032
:1010F000746865206661696C757265206F6620682A
:10110000697320616D6D756E6974696F6E3A9420B4
:101110006166746572207768696368207468652009
:101120006D61696C2077617320726F626265642003
:10113000696E2070656163653B2074686174206D21
:1011400061676E69666963656E7420706F74656E41
:10115000746174652C20746865204C6F7264204D36
:1011600061796F72206F66204C6F6E646F6E2C20F9
:10117000776173206D61646520746F207374616E94
:101180006420616E642064656C69766572206F6EA0
:10119000205475726E68616D20477265656E2C20F3
:1011A0006279206F6E6520686967687761796D6123
:1011B0006E2C2077686F20646573706F696C65644E
:1011C0002074686520696C6C75737472696F7573CF
:1011D00020637265617475726520696E207369673A
:1011E0006874206F6620616C6C206869732072657A
:1011F00074696E75653B20707269736F6E6572738A
:1012000020696E204C6F6E646F6E2067616F6C7327
:1012100020666F7567687420626174746C657320F2
:1012200077697468207468656972207475726E6B72
:101230006579732C20616E6420746865206D616A25
:1012400065737479206F6620746865206C617720FF
:10125000666972656420626C756E6465726275732E
:1012600073657320696E20616D6F6E6720746865A9
:101270006D2C206C6F6164656420776974682072DE
:101280006F756E6473206F662073686F7420616E73
:10129000642062616C6C3B207468696576657320BC
:1012A000736E6970706564206F6666206469616D35
:1012B0006F6E642063726F737365732066726F6DF7
:1012C00020746865206E65636B73206F66206E6F97
:1012D000626C65206C6F72647320617420436F755B
:1012E00072742064726177696E672D726F6F6D73AF
:1012F0003B206D75736B6574656572732077656EE1
:101300007420696E746F2053742E2047696C657366
:1013100092732C20746F2073656172636820666F0E
:101320007220636F6E74726162616E6420676F6FAA
:1013300064732C20616E6420746865206D6F622078
:101340006669726564206F6E20746865206D7573C0
:101350006B6574656572732C20616E6420746865BA
:10136000206D75736B65746565727320666972654F
:1013700064206F6E20746865206D6F622C20616E32
:1013800064206E6F626F64792074686F756768742B
:1013900020616E79206F66207468657365206F63C5
:1013A00063757272656E636573206D756368206F17
:1013B0007574206F662074686520636F6D6D6F6E45
:1013C000207761792E20496E20746865206D6964EC
:1013D0007374206F66207468656D2C2074686520B6
:1013E00068616E676D616E2C20657665722062752E
:1013F000737920616E64206576657220776F7273F1
:1014000065207468616E207573656C6573732C203C
:1014100077617320696E20636F6E7374616E7420E0
:101420007265717569736974696F6E3B206E6F7751
:101430002C20737472696E67696E67207570206CFA
:101440006F6E6720726F7773206F66206D697363AC
:10145000656C6C616E656F7573206372696D696E22
:10146000616C733B206E6F772C2068616E67696ECC
:1014700067206120686F757365627265616B657264
:10148000206F6E2053617475726461792077686F84
:1014900020686164206265656E2074616B656E20F2
:1014A0006F6E20547565736461793B206E6F772C85
:1014B000206275726E696E672070656F706C652052
:1014C000696E207468652068616E64206174204EC6
:1014D0006577676174652062792074686520646F40
:1014E0007A656E2C20616E64206E6F772062757253
:1014F0006E696E672070616D70686C6574732061D1
:10150000742074686520646F6F72206F6620576561
:1015100073746D696E737465722048616C6C3B20E6
:10152000746F2D6461792C2074616B696E6720740F
:101530006865206C696665206F6620616E20617445
:10154000726F63696F7573206D7572646572657211
:101550002C20616E6420746F2D6D6F72726F772016
:101560006F662061207772657463686564207069B6
:101570006C66657265722077686F2068616420729E
:101580006F626265642061206661726D657292733C
:1015900020626F79206F662073697870656E63656D
:1015A0002E20416C6C207468657365207468696EC8
:1015B00067732C20616E6420612074686F7573619D
:1015C0006E64206C696B65207468656D2C206361A6
:1015D0006D6520746F207061737320696E20616E79
:1015E0006420636C6F73652075706F6E207468651E
:1015F0002064656172206F6C642079656172206F70
:101600006E652074686F7573616E642073657665AE
:101610006E2068756E6472656420616E6420736507
:1016200076656E74792D666976652E20456E7669CD
:10163000726F6E6564206279207468656D2C207706
:1016400068696C652074686520576F6F646D616EA2
:1016500020616E6420746865204661726D65722039
:10166000776F726B656420756E6865656465642C60
:101670002074686F73652074776F206F66207468BC
:1016800065206C61726765206A6177732C20616EDA
:10169000642074686F7365206F7468657220747756
:1016A0006F206F662074686520706C61696E2061C0
:1016B0006E64207468652066616972206661636586
:1016C000732C2074726F6420776974682073746956
:1016D0007220656E6F7567682C20616E642063618F
:1016E00072726965642074686569722064697669DC
:1016F0006E65207269676874732077697468206109
:1017000020686967682068616E642E20546875736C
:1017100020646964207468652079656172206F6E49
:10172000652074686F7573616E6420736576656E8D
:101730002068756E6472656420616E6420736576DE
:10174000656E74792D6669766520636F6E64756366
:10175000742074686569722047726561746E657380
:101760007365732C20616E64206D79726961647396
:10177000206F6620736D616C6C2063726561747597
:1017800072657397746865206372656174757265BC
:1017900073206F662074686973206368726F6E6966
:1017A000636C6520616D6F6E67207468652072657B
:1017B000737497616C6F6E672074686520726F61D7
:1017C00064732074686174206C6179206265666F4F
:0917D0007265207468656D2E003D
:00000001FF
