:1000000002008BC00078B10000D8FCD00022C000F4
:10001000C001792D78A6D8FED9FADAF6D001D00041
:1000200022D2B3120003C2B322D2B2020033C2B250
:10003000020033A2E792B7A2E692B6A2E592B5A279
:10004000E492B4120021A2E392B7A2E292B6A2E136
:1000500092B5A2E092B412002122C2B3743312000E
:100060002E743312002E743212002E742812002EB9
:10007000740C12002E740112002E7A0212000E224D
:10008000E4936006120029A380F62275817F120096
:100090005A748012002E9000C11200809000AF129E
:1000A000008074C012002E9000B812008080FE20E4
:1000B00042656E6E6574740047616C616D61676165
:0A00C0000038343337323531350093
:00000001FF
